{
  "_format": "hh-sol-artifact-1",
  "contractName": "SimpleDexPair",
  "sourceName": "contracts/SimpleDexPair.sol",
  "abi": [
    {
      "inputs": [
        {
          "internalType": "address",
          "name": "_token0",
          "type": "address"
        },
        {
          "internalType": "address",
          "name": "_token1",
          "type": "address"
        }
      ],
      "stateMutability": "nonpayable",
      "type": "constructor"
    },
    {
      "anonymous": false,
      "inputs": [
        {
          "indexed": true,
          "internalType": "address",
          "name": "provider",
          "type": "address"
        },
        {
          "indexed": false,
          "internalType": "uint256",
          "name": "amount0",
          "type": "uint256"
        },
        {
          "indexed": false,
          "internalType": "uint256",
          "name": "amount1",
          "type": "uint256"
        }
      ],
      "name": "LiquidityAdded",
      "type": "event"
    },
    {
      "anonymous": false,
      "inputs": [
        {
          "indexed": true,
          "internalType": "address",
          "name": "provider",
          "type": "address"
        },
        {
          "indexed": false,
          "internalType": "uint256",
          "name": "amount0",
          "type": "uint256"
        },
        {
          "indexed": false,
          "internalType": "uint256",
          "name": "amount1",
          "type": "uint256"
        }
      ],
      "name": "LiquidityRemoved",
      "type": "event"
    },
    {
      "anonymous": false,
      "inputs": [
        {
          "indexed": true,
          "internalType": "address",
          "name": "user",
          "type": "address"
        },
        {
          "indexed": false,
          "internalType": "address",
          "name": "tokenIn",
          "type": "address"
        },
        {
          "indexed": false,
          "internalType": "uint256",
          "name": "amountIn",
          "type": "uint256"
        },
        {
          "indexed": false,
          "internalType": "address",
          "name": "tokenOut",
          "type": "address"
        },
        {
          "indexed": false,
          "internalType": "uint256",
          "name": "amountOut",
          "type": "uint256"
        }
      ],
      "name": "Swapped",
      "type": "event"
    },
    {
      "inputs": [
        {
          "internalType": "uint256",
          "name": "amount0",
          "type": "uint256"
        },
        {
          "internalType": "uint256",
          "name": "amount1",
          "type": "uint256"
        }
      ],
      "name": "addLiquidity",
      "outputs": [],
      "stateMutability": "nonpayable",
      "type": "function"
    },
    {
      "inputs": [
        {
          "internalType": "uint256",
          "name": "amountIn",
          "type": "uint256"
        },
        {
          "internalType": "uint256",
          "name": "reserveIn",
          "type": "uint256"
        },
        {
          "internalType": "uint256",
          "name": "reserveOut",
          "type": "uint256"
        }
      ],
      "name": "getAmountOut",
      "outputs": [
        {
          "internalType": "uint256",
          "name": "amountOut",
          "type": "uint256"
        }
      ],
      "stateMutability": "pure",
      "type": "function"
    },
    {
      "inputs": [],
      "name": "getReserves",
      "outputs": [
        {
          "internalType": "uint112",
          "name": "",
          "type": "uint112"
        },
        {
          "internalType": "uint112",
          "name": "",
          "type": "uint112"
        }
      ],
      "stateMutability": "view",
      "type": "function"
    },
    {
      "inputs": [
        {
          "internalType": "uint256",
          "name": "amount0",
          "type": "uint256"
        },
        {
          "internalType": "uint256",
          "name": "amount1",
          "type": "uint256"
        }
      ],
      "name": "removeLiquidity",
      "outputs": [],
      "stateMutability": "nonpayable",
      "type": "function"
    },
    {
      "inputs": [
        {
          "internalType": "uint256",
          "name": "amountIn",
          "type": "uint256"
        }
      ],
      "name": "swapToken0ForToken1",
      "outputs": [],
      "stateMutability": "nonpayable",
      "type": "function"
    },
    {
      "inputs": [
        {
          "internalType": "uint256",
          "name": "amountIn",
          "type": "uint256"
        }
      ],
      "name": "swapToken1ForToken0",
      "outputs": [],
      "stateMutability": "nonpayable",
      "type": "function"
    },
    {
      "inputs": [],
      "name": "token0",
      "outputs": [
        {
          "internalType": "address",
          "name": "",
          "type": "address"
        }
      ],
      "stateMutability": "view",
      "type": "function"
    },
    {
      "inputs": [],
      "name": "token1",
      "outputs": [
        {
          "internalType": "address",
          "name": "",
          "type": "address"
        }
      ],
      "stateMutability": "view",
      "type": "function"
    }
  ],
  "bytecode": "0x60806040523480156200001157600080fd5b50604051620017803803806200178083398181016040528101906200003791906200012a565b816000806101000a81548173ffffffffffffffffffffffffffffffffffffffff021916908373ffffffffffffffffffffffffffffffffffffffff16021790555080600160006101000a81548173ffffffffffffffffffffffffffffffffffffffff021916908373ffffffffffffffffffffffffffffffffffffffff160217905550505062000171565b600080fd5b600073ffffffffffffffffffffffffffffffffffffffff82169050919050565b6000620000f282620000c5565b9050919050565b6200010481620000e5565b81146200011057600080fd5b50565b6000815190506200012481620000f9565b92915050565b60008060408385031215620001445762000143620000c0565b5b6000620001548582860162000113565b9250506020620001678582860162000113565b9150509250929050565b6115ff80620001816000396000f3fe608060405234801561001057600080fd5b50600436106100885760003560e01c806386f8df891161005b57806386f8df89146101165780639cd441da146101325780639d7de6b31461014e578063d21220a71461016a57610088565b8063054d50d41461008d5780630902f1ac146100bd5780630dfe1681146100dc5780637d77f10e146100fa575b600080fd5b6100a760048036038101906100a29190610fb4565b610188565b6040516100b49190611016565b60405180910390f35b6100c56101e0565b6040516100d392919061105a565b60405180910390f35b6100e4610225565b6040516100f191906110c4565b60405180910390f35b610114600480360381019061010f91906110df565b610249565b005b610130600480360381019061012b91906110df565b610603565b005b61014c6004803603810190610147919061110c565b6109bd565b005b6101686004803603810190610163919061110c565b610c5e565b005b610172610f53565b60405161017f91906110c4565b60405180910390f35b6000806103e585610199919061117b565b9050600083826101a9919061117b565b90506000826103e8876101bc919061117b565b6101c691906111bd565b905080826101d49190611220565b93505050509392505050565b600080600260009054906101000a90046dffffffffffffffffffffffffffff166002600e9054906101000a90046dffffffffffffffffffffffffffff16915091509091565b60008054906101000a900473ffffffffffffffffffffffffffffffffffffffff1681565b6000811161028c576040517f08c379a0000000000000000000000000000000000000000000000000000000008152600401610283906112ae565b60405180910390fd5b60006102f182600260009054906101000a90046dffffffffffffffffffffffffffff166dffffffffffffffffffffffffffff166002600e9054906101000a90046dffffffffffffffffffffffffffff166dffffffffffffffffffffffffffff16610188565b905060008111801561032e57506002600e9054906101000a90046dffffffffffffffffffffffffffff166dffffffffffffffffffffffffffff1681105b61036d576040517f08c379a00000000000000000000000000000000000000000000000000000000081526004016103649061131a565b60405180910390fd5b60008054906101000a900473ffffffffffffffffffffffffffffffffffffffff1673ffffffffffffffffffffffffffffffffffffffff166323b872dd3330856040518463ffffffff1660e01b81526004016103ca9392919061133a565b6020604051808303816000875af11580156103e9573d6000803e3d6000fd5b505050506040513d601f19601f8201168201806040525081019061040d91906113a9565b50600160009054906101000a900473ffffffffffffffffffffffffffffffffffffffff1673ffffffffffffffffffffffffffffffffffffffff1663a9059cbb33836040518363ffffffff1660e01b815260040161046b9291906113d6565b6020604051808303816000875af115801561048a573d6000803e3d6000fd5b505050506040513d601f19601f820116820180604052508101906104ae91906113a9565b5081600260008282829054906101000a90046dffffffffffffffffffffffffffff166104da91906113ff565b92506101000a8154816dffffffffffffffffffffffffffff02191690836dffffffffffffffffffffffffffff160217905550806002600e8282829054906101000a90046dffffffffffffffffffffffffffff166105379190611441565b92506101000a8154816dffffffffffffffffffffffffffff02191690836dffffffffffffffffffffffffffff1602179055503373ffffffffffffffffffffffffffffffffffffffff167f692315744755ee6d80decaeb993d4b1bb95ff5db042cc47b32d5a7d858b0190260008054906101000a900473ffffffffffffffffffffffffffffffffffffffff1684600160009054906101000a900473ffffffffffffffffffffffffffffffffffffffff16856040516105f79493929190611483565b60405180910390a25050565b60008111610646576040517f08c379a000000000000000000000000000000000000000000000000000000000815260040161063d906112ae565b60405180910390fd5b60006106ab826002600e9054906101000a90046dffffffffffffffffffffffffffff166dffffffffffffffffffffffffffff16600260009054906101000a90046dffffffffffffffffffffffffffff166dffffffffffffffffffffffffffff16610188565b90506000811180156106e85750600260009054906101000a90046dffffffffffffffffffffffffffff166dffffffffffffffffffffffffffff1681105b610727576040517f08c379a000000000000000000000000000000000000000000000000000000000815260040161071e9061131a565b60405180910390fd5b600160009054906101000a900473ffffffffffffffffffffffffffffffffffffffff1673ffffffffffffffffffffffffffffffffffffffff166323b872dd3330856040518463ffffffff1660e01b81526004016107869392919061133a565b6020604051808303816000875af11580156107a5573d6000803e3d6000fd5b505050506040513d601f19601f820116820180604052508101906107c991906113a9565b5060008054906101000a900473ffffffffffffffffffffffffffffffffffffffff1673ffffffffffffffffffffffffffffffffffffffff1663a9059cbb33836040518363ffffffff1660e01b81526004016108259291906113d6565b6020604051808303816000875af1158015610844573d6000803e3d6000fd5b505050506040513d601f19601f8201168201806040525081019061086891906113a9565b50816002600e8282829054906101000a90046dffffffffffffffffffffffffffff1661089491906113ff565b92506101000a8154816dffffffffffffffffffffffffffff02191690836dffffffffffffffffffffffffffff16021790555080600260008282829054906101000a90046dffffffffffffffffffffffffffff166108f19190611441565b92506101000a8154816dffffffffffffffffffffffffffff02191690836dffffffffffffffffffffffffffff1602179055503373ffffffffffffffffffffffffffffffffffffffff167f692315744755ee6d80decaeb993d4b1bb95ff5db042cc47b32d5a7d858b01902600160009054906101000a900473ffffffffffffffffffffffffffffffffffffffff168460008054906101000a900473ffffffffffffffffffffffffffffffffffffffff16856040516109b19493929190611483565b60405180910390a25050565b6000821180156109cd5750600081115b610a0c576040517f08c379a0000000000000000000000000000000000000000000000000000000008152600401610a0390611514565b60405180910390fd5b60008054906101000a900473ffffffffffffffffffffffffffffffffffffffff1673ffffffffffffffffffffffffffffffffffffffff166323b872dd3330856040518463ffffffff1660e01b8152600401610a699392919061133a565b6020604051808303816000875af1158015610a88573d6000803e3d6000fd5b505050506040513d601f19601f82011682018060405250810190610aac91906113a9565b50600160009054906101000a900473ffffffffffffffffffffffffffffffffffffffff1673ffffffffffffffffffffffffffffffffffffffff166323b872dd3330846040518463ffffffff1660e01b8152600401610b0c9392919061133a565b6020604051808303816000875af1158015610b2b573d6000803e3d6000fd5b505050506040513d601f19601f82011682018060405250810190610b4f91906113a9565b5081600260008282829054906101000a90046dffffffffffffffffffffffffffff16610b7b91906113ff565b92506101000a8154816dffffffffffffffffffffffffffff02191690836dffffffffffffffffffffffffffff160217905550806002600e8282829054906101000a90046dffffffffffffffffffffffffffff16610bd891906113ff565b92506101000a8154816dffffffffffffffffffffffffffff02191690836dffffffffffffffffffffffffffff1602179055503373ffffffffffffffffffffffffffffffffffffffff167fac1d76749e5447b7b16f5ab61447e1bd502f3bb4807af3b28e620d1700a6ee458383604051610c52929190611534565b60405180910390a25050565b600260009054906101000a90046dffffffffffffffffffffffffffff166dffffffffffffffffffffffffffff168211158015610cc657506002600e9054906101000a90046dffffffffffffffffffffffffffff166dffffffffffffffffffffffffffff168111155b610d05576040517f08c379a0000000000000000000000000000000000000000000000000000000008152600401610cfc906115a9565b60405180910390fd5b60008054906101000a900473ffffffffffffffffffffffffffffffffffffffff1673ffffffffffffffffffffffffffffffffffffffff1663a9059cbb33846040518363ffffffff1660e01b8152600401610d609291906113d6565b6020604051808303816000875af1158015610d7f573d6000803e3d6000fd5b505050506040513d601f19601f82011682018060405250810190610da391906113a9565b50600160009054906101000a900473ffffffffffffffffffffffffffffffffffffffff1673ffffffffffffffffffffffffffffffffffffffff1663a9059cbb33836040518363ffffffff1660e01b8152600401610e019291906113d6565b6020604051808303816000875af1158015610e20573d6000803e3d6000fd5b505050506040513d601f19601f82011682018060405250810190610e4491906113a9565b5081600260008282829054906101000a90046dffffffffffffffffffffffffffff16610e709190611441565b92506101000a8154816dffffffffffffffffffffffffffff02191690836dffffffffffffffffffffffffffff160217905550806002600e8282829054906101000a90046dffffffffffffffffffffffffffff16610ecd9190611441565b92506101000a8154816dffffffffffffffffffffffffffff02191690836dffffffffffffffffffffffffffff1602179055503373ffffffffffffffffffffffffffffffffffffffff167f96cd817c6329656790ef8fba7675405193677d39619571282f5e21f3a98cd0598383604051610f47929190611534565b60405180910390a25050565b600160009054906101000a900473ffffffffffffffffffffffffffffffffffffffff1681565b600080fd5b6000819050919050565b610f9181610f7e565b8114610f9c57600080fd5b50565b600081359050610fae81610f88565b92915050565b600080600060608486031215610fcd57610fcc610f79565b5b6000610fdb86828701610f9f565b9350506020610fec86828701610f9f565b9250506040610ffd86828701610f9f565b9150509250925092565b61101081610f7e565b82525050565b600060208201905061102b6000830184611007565b92915050565b60006dffffffffffffffffffffffffffff82169050919050565b61105481611031565b82525050565b600060408201905061106f600083018561104b565b61107c602083018461104b565b9392505050565b600073ffffffffffffffffffffffffffffffffffffffff82169050919050565b60006110ae82611083565b9050919050565b6110be816110a3565b82525050565b60006020820190506110d960008301846110b5565b92915050565b6000602082840312156110f5576110f4610f79565b5b600061110384828501610f9f565b91505092915050565b6000806040838503121561112357611122610f79565b5b600061113185828601610f9f565b925050602061114285828601610f9f565b9150509250929050565b7f4e487b7100000000000000000000000000000000000000000000000000000000600052601160045260246000fd5b600061118682610f7e565b915061119183610f7e565b925082820261119f81610f7e565b915082820484148315176111b6576111b561114c565b5b5092915050565b60006111c882610f7e565b91506111d383610f7e565b92508282019050808211156111eb576111ea61114c565b5b92915050565b7f4e487b7100000000000000000000000000000000000000000000000000000000600052601260045260246000fd5b600061122b82610f7e565b915061123683610f7e565b925082611246576112456111f1565b5b828204905092915050565b600082825260208201905092915050565b7f416d6f756e74206d757374206265203e20300000000000000000000000000000600082015250565b6000611298601283611251565b91506112a382611262565b602082019050919050565b600060208201905081810360008301526112c78161128b565b9050919050565b7f496e73756666696369656e74206f757470757420616d6f756e74000000000000600082015250565b6000611304601a83611251565b915061130f826112ce565b602082019050919050565b60006020820190508181036000830152611333816112f7565b9050919050565b600060608201905061134f60008301866110b5565b61135c60208301856110b5565b6113696040830184611007565b949350505050565b60008115159050919050565b61138681611371565b811461139157600080fd5b50565b6000815190506113a38161137d565b92915050565b6000602082840312156113bf576113be610f79565b5b60006113cd84828501611394565b91505092915050565b60006040820190506113eb60008301856110b5565b6113f86020830184611007565b9392505050565b600061140a82611031565b915061141583611031565b925082820190506dffffffffffffffffffffffffffff81111561143b5761143a61114c565b5b92915050565b600061144c82611031565b915061145783611031565b925082820390506dffffffffffffffffffffffffffff81111561147d5761147c61114c565b5b92915050565b600060808201905061149860008301876110b5565b6114a56020830186611007565b6114b260408301856110b5565b6114bf6060830184611007565b95945050505050565b7f416d6f756e7473206d757374206265203e203000000000000000000000000000600082015250565b60006114fe601383611251565b9150611509826114c8565b602082019050919050565b6000602082019050818103600083015261152d816114f1565b9050919050565b60006040820190506115496000830185611007565b6115566020830184611007565b9392505050565b7f496e73756666696369656e742072657365727665730000000000000000000000600082015250565b6000611593601583611251565b915061159e8261155d565b602082019050919050565b600060208201905081810360008301526115c281611586565b905091905056fea2646970667358221220d582ad43c55f2c7eaab63eab93e80d004e4b97d56b0436a8c6c1068fd76ebdb264736f6c63430008140033",
  "linkReferences": {},
  "deployedLinkReferences": {}
}